{
  "contractName": "Escrow",
  "abi": [
    {
      "inputs": [],
      "stateMutability": "nonpayable",
      "type": "constructor"
    },
    {
      "anonymous": false,
      "inputs": [
        {
          "indexed": true,
          "internalType": "bytes32",
          "name": "role",
          "type": "bytes32"
        },
        {
          "indexed": true,
          "internalType": "bytes32",
          "name": "previousAdminRole",
          "type": "bytes32"
        },
        {
          "indexed": true,
          "internalType": "bytes32",
          "name": "newAdminRole",
          "type": "bytes32"
        }
      ],
      "name": "RoleAdminChanged",
      "type": "event"
    },
    {
      "anonymous": false,
      "inputs": [
        {
          "indexed": true,
          "internalType": "bytes32",
          "name": "role",
          "type": "bytes32"
        },
        {
          "indexed": true,
          "internalType": "address",
          "name": "account",
          "type": "address"
        },
        {
          "indexed": true,
          "internalType": "address",
          "name": "sender",
          "type": "address"
        }
      ],
      "name": "RoleGranted",
      "type": "event"
    },
    {
      "anonymous": false,
      "inputs": [
        {
          "indexed": true,
          "internalType": "bytes32",
          "name": "role",
          "type": "bytes32"
        },
        {
          "indexed": true,
          "internalType": "address",
          "name": "account",
          "type": "address"
        },
        {
          "indexed": true,
          "internalType": "address",
          "name": "sender",
          "type": "address"
        }
      ],
      "name": "RoleRevoked",
      "type": "event"
    },
    {
      "inputs": [],
      "name": "AGENT",
      "outputs": [
        {
          "internalType": "bytes32",
          "name": "",
          "type": "bytes32"
        }
      ],
      "stateMutability": "view",
      "type": "function",
      "constant": true
    },
    {
      "inputs": [],
      "name": "BUYER",
      "outputs": [
        {
          "internalType": "bytes32",
          "name": "",
          "type": "bytes32"
        }
      ],
      "stateMutability": "view",
      "type": "function",
      "constant": true
    },
    {
      "inputs": [],
      "name": "DEFAULT_ADMIN_ROLE",
      "outputs": [
        {
          "internalType": "bytes32",
          "name": "",
          "type": "bytes32"
        }
      ],
      "stateMutability": "view",
      "type": "function",
      "constant": true
    },
    {
      "inputs": [],
      "name": "SELLER",
      "outputs": [
        {
          "internalType": "bytes32",
          "name": "",
          "type": "bytes32"
        }
      ],
      "stateMutability": "view",
      "type": "function",
      "constant": true
    },
    {
      "inputs": [],
      "name": "buyer",
      "outputs": [
        {
          "internalType": "address payable",
          "name": "",
          "type": "address"
        }
      ],
      "stateMutability": "view",
      "type": "function",
      "constant": true
    },
    {
      "inputs": [
        {
          "internalType": "address",
          "name": "",
          "type": "address"
        }
      ],
      "name": "deposits",
      "outputs": [
        {
          "internalType": "uint256",
          "name": "",
          "type": "uint256"
        }
      ],
      "stateMutability": "view",
      "type": "function",
      "constant": true
    },
    {
      "inputs": [
        {
          "internalType": "bytes32",
          "name": "role",
          "type": "bytes32"
        }
      ],
      "name": "getRoleAdmin",
      "outputs": [
        {
          "internalType": "bytes32",
          "name": "",
          "type": "bytes32"
        }
      ],
      "stateMutability": "view",
      "type": "function",
      "constant": true
    },
    {
      "inputs": [
        {
          "internalType": "bytes32",
          "name": "role",
          "type": "bytes32"
        },
        {
          "internalType": "address",
          "name": "account",
          "type": "address"
        }
      ],
      "name": "grantRole",
      "outputs": [],
      "stateMutability": "nonpayable",
      "type": "function"
    },
    {
      "inputs": [
        {
          "internalType": "bytes32",
          "name": "role",
          "type": "bytes32"
        },
        {
          "internalType": "address",
          "name": "account",
          "type": "address"
        }
      ],
      "name": "hasRole",
      "outputs": [
        {
          "internalType": "bool",
          "name": "",
          "type": "bool"
        }
      ],
      "stateMutability": "view",
      "type": "function",
      "constant": true
    },
    {
      "inputs": [
        {
          "internalType": "bytes32",
          "name": "role",
          "type": "bytes32"
        },
        {
          "internalType": "address",
          "name": "account",
          "type": "address"
        }
      ],
      "name": "renounceRole",
      "outputs": [],
      "stateMutability": "nonpayable",
      "type": "function"
    },
    {
      "inputs": [
        {
          "internalType": "bytes32",
          "name": "role",
          "type": "bytes32"
        },
        {
          "internalType": "address",
          "name": "account",
          "type": "address"
        }
      ],
      "name": "revokeRole",
      "outputs": [],
      "stateMutability": "nonpayable",
      "type": "function"
    },
    {
      "inputs": [],
      "name": "seller",
      "outputs": [
        {
          "internalType": "address payable",
          "name": "",
          "type": "address"
        }
      ],
      "stateMutability": "view",
      "type": "function",
      "constant": true
    },
    {
      "inputs": [],
      "name": "state",
      "outputs": [
        {
          "internalType": "enum Escrow.State",
          "name": "",
          "type": "uint8"
        }
      ],
      "stateMutability": "view",
      "type": "function",
      "constant": true
    },
    {
      "inputs": [
        {
          "internalType": "bytes4",
          "name": "interfaceId",
          "type": "bytes4"
        }
      ],
      "name": "supportsInterface",
      "outputs": [
        {
          "internalType": "bool",
          "name": "",
          "type": "bool"
        }
      ],
      "stateMutability": "view",
      "type": "function",
      "constant": true
    },
    {
      "inputs": [],
      "name": "deposit",
      "outputs": [],
      "stateMutability": "payable",
      "type": "function",
      "payable": true
    },
    {
      "inputs": [],
      "name": "confirmPayment",
      "outputs": [],
      "stateMutability": "payable",
      "type": "function",
      "payable": true
    },
    {
      "inputs": [],
      "name": "confirmDelivery",
      "outputs": [],
      "stateMutability": "nonpayable",
      "type": "function"
    },
    {
      "inputs": [],
      "name": "returnPayment",
      "outputs": [],
      "stateMutability": "nonpayable",
      "type": "function"
    }
  ],
  "bytecode": "0x60806040523480156200001157600080fd5b50620000447fd0d9c70b33dd60afacb55d8ff719509eca8de63778217873fac25c4d1f90353d336200014460201b60201c565b620000987feeccd0cdb44235955432f589255f62b95683f64165b40b022d338b8009cf79b6600160009054906101000a900473ffffffffffffffffffffffffffffffffffffffff166200014460201b60201c565b620000ec7fe27592a68a79c541972a95a186227e8435146610cb2d3eb8f8589c9a507d61b2600260009054906101000a900473ffffffffffffffffffffffffffffffffffffffff166200014460201b60201c565b6000600260146101000a81548160ff0219169083600281111562000139577f4e487b7100000000000000000000000000000000000000000000000000000000600052602160045260246000fd5b0217905550620002bd565b6200015682826200015a60201b60201c565b5050565b6200016c82826200024b60201b60201c565b6200024757600160008084815260200190815260200160002060000160008373ffffffffffffffffffffffffffffffffffffffff1673ffffffffffffffffffffffffffffffffffffffff16815260200190815260200160002060006101000a81548160ff021916908315150217905550620001ec620002b560201b60201c565b73ffffffffffffffffffffffffffffffffffffffff168173ffffffffffffffffffffffffffffffffffffffff16837f2f8788117e7eff1d82e926ec794901d17c78024a50270940304540a733656f0d60405160405180910390a45b5050565b600080600084815260200190815260200160002060000160008373ffffffffffffffffffffffffffffffffffffffff1673ffffffffffffffffffffffffffffffffffffffff16815260200190815260200160002060009054906101000a900460ff16905092915050565b600033905090565b611d7a80620002cd6000396000f3fe6080604052600436106101095760003560e01c80637150d8ae11610095578063bca93eba11610064578063bca93eba14610326578063c19d93fb14610351578063d0e30db01461037c578063d547741f14610386578063fc7e286d146103af57610109565b80637150d8ae1461026857806391d1485414610293578063a217fddf146102d0578063a8fa2987146102fb57610109565b806336568abe116100dc57806336568abe146101dc5780633dcfe411146102055780634f86473d1461021c5780635e10177b1461024757806362ef1f811461025e57610109565b806301ffc9a71461010e57806308551a531461014b578063248a9ca3146101765780632f2ff15d146101b3575b600080fd5b34801561011a57600080fd5b50610135600480360381019061013091906115d2565b6103ec565b60405161014291906117fa565b60405180910390f35b34801561015757600080fd5b50610160610466565b60405161016d91906117df565b60405180910390f35b34801561018257600080fd5b5061019d6004803603810190610198919061156d565b61048c565b6040516101aa9190611815565b60405180910390f35b3480156101bf57600080fd5b506101da60048036038101906101d59190611596565b6104ab565b005b3480156101e857600080fd5b5061020360048036038101906101fe9190611596565b6104d4565b005b34801561021157600080fd5b5061021a610557565b005b34801561022857600080fd5b506102316107d7565b60405161023e9190611815565b60405180910390f35b34801561025357600080fd5b5061025c6107fb565b005b610266610a7b565b005b34801561027457600080fd5b5061027d610beb565b60405161028a91906117df565b60405180910390f35b34801561029f57600080fd5b506102ba60048036038101906102b59190611596565b610c11565b6040516102c791906117fa565b60405180910390f35b3480156102dc57600080fd5b506102e5610c7b565b6040516102f29190611815565b60405180910390f35b34801561030757600080fd5b50610310610c82565b60405161031d9190611815565b60405180910390f35b34801561033257600080fd5b5061033b610ca6565b6040516103489190611815565b60405180910390f35b34801561035d57600080fd5b50610366610cca565b6040516103739190611830565b60405180910390f35b610384610cdd565b005b34801561039257600080fd5b506103ad60048036038101906103a89190611596565b610efa565b005b3480156103bb57600080fd5b506103d660048036038101906103d19190611544565b610f23565b6040516103e3919061190d565b60405180910390f35b60007f7965db0b000000000000000000000000000000000000000000000000000000007bffffffffffffffffffffffffffffffffffffffffffffffffffffffff1916827bffffffffffffffffffffffffffffffffffffffffffffffffffffffff1916148061045f575061045e82610f3b565b5b9050919050565b600260009054906101000a900473ffffffffffffffffffffffffffffffffffffffff1681565b6000806000838152602001908152602001600020600101549050919050565b6104b48261048c565b6104c5816104c0610fa5565b610fad565b6104cf838361104a565b505050565b6104dc610fa5565b73ffffffffffffffffffffffffffffffffffffffff168173ffffffffffffffffffffffffffffffffffffffff1614610549576040517f08c379a0000000000000000000000000000000000000000000000000000000008152600401610540906118ed565b60405180910390fd5b610553828261112a565b5050565b6105817fd0d9c70b33dd60afacb55d8ff719509eca8de63778217873fac25c4d1f90353d33610c11565b6105c0576040517f08c379a00000000000000000000000000000000000000000000000000000000081526004016105b7906118cd565b60405180910390fd5b60018060028111156105fb577f4e487b7100000000000000000000000000000000000000000000000000000000600052602160045260246000fd5b600260149054906101000a900460ff166002811115610643577f4e487b7100000000000000000000000000000000000000000000000000000000600052602160045260246000fd5b1461064d57600080fd5b600060036000600160009054906101000a900473ffffffffffffffffffffffffffffffffffffffff1673ffffffffffffffffffffffffffffffffffffffff1673ffffffffffffffffffffffffffffffffffffffff168152602001908152602001600020549050600060036000600160009054906101000a900473ffffffffffffffffffffffffffffffffffffffff1673ffffffffffffffffffffffffffffffffffffffff1673ffffffffffffffffffffffffffffffffffffffff16815260200190815260200160002081905550600160009054906101000a900473ffffffffffffffffffffffffffffffffffffffff1673ffffffffffffffffffffffffffffffffffffffff166108fc829081150290604051600060405180830381858888f19350505050158015610782573d6000803e3d6000fd5b5060028060146101000a81548160ff021916908360028111156107ce577f4e487b7100000000000000000000000000000000000000000000000000000000600052602160045260246000fd5b02179055505050565b7fd0d9c70b33dd60afacb55d8ff719509eca8de63778217873fac25c4d1f90353d81565b6108257fd0d9c70b33dd60afacb55d8ff719509eca8de63778217873fac25c4d1f90353d33610c11565b610864576040517f08c379a000000000000000000000000000000000000000000000000000000000815260040161085b906118cd565b60405180910390fd5b600180600281111561089f577f4e487b7100000000000000000000000000000000000000000000000000000000600052602160045260246000fd5b600260149054906101000a900460ff1660028111156108e7577f4e487b7100000000000000000000000000000000000000000000000000000000600052602160045260246000fd5b146108f157600080fd5b600060036000600160009054906101000a900473ffffffffffffffffffffffffffffffffffffffff1673ffffffffffffffffffffffffffffffffffffffff1673ffffffffffffffffffffffffffffffffffffffff168152602001908152602001600020549050600060036000600160009054906101000a900473ffffffffffffffffffffffffffffffffffffffff1673ffffffffffffffffffffffffffffffffffffffff1673ffffffffffffffffffffffffffffffffffffffff16815260200190815260200160002081905550600260009054906101000a900473ffffffffffffffffffffffffffffffffffffffff1673ffffffffffffffffffffffffffffffffffffffff166108fc829081150290604051600060405180830381858888f19350505050158015610a26573d6000803e3d6000fd5b5060028060146101000a81548160ff02191690836002811115610a72577f4e487b7100000000000000000000000000000000000000000000000000000000600052602160045260246000fd5b02179055505050565b6000806002811115610ab6577f4e487b7100000000000000000000000000000000000000000000000000000000600052602160045260246000fd5b600260149054906101000a900460ff166002811115610afe577f4e487b7100000000000000000000000000000000000000000000000000000000600052602160045260246000fd5b14610b0857600080fd5b600160009054906101000a900473ffffffffffffffffffffffffffffffffffffffff1673ffffffffffffffffffffffffffffffffffffffff163373ffffffffffffffffffffffffffffffffffffffff1614610b98576040517f08c379a0000000000000000000000000000000000000000000000000000000008152600401610b8f9061188d565b60405180910390fd5b60028060146101000a81548160ff02191690836002811115610be3577f4e487b7100000000000000000000000000000000000000000000000000000000600052602160045260246000fd5b021790555050565b600160009054906101000a900473ffffffffffffffffffffffffffffffffffffffff1681565b600080600084815260200190815260200160002060000160008373ffffffffffffffffffffffffffffffffffffffff1673ffffffffffffffffffffffffffffffffffffffff16815260200190815260200160002060009054906101000a900460ff16905092915050565b6000801b81565b7feeccd0cdb44235955432f589255f62b95683f64165b40b022d338b8009cf79b681565b7fe27592a68a79c541972a95a186227e8435146610cb2d3eb8f8589c9a507d61b281565b600260149054906101000a900460ff1681565b600160009054906101000a900473ffffffffffffffffffffffffffffffffffffffff1673ffffffffffffffffffffffffffffffffffffffff163373ffffffffffffffffffffffffffffffffffffffff1614610d6d576040517f08c379a0000000000000000000000000000000000000000000000000000000008152600401610d649061188d565b60405180910390fd5b60006002811115610da7577f4e487b7100000000000000000000000000000000000000000000000000000000600052602160045260246000fd5b600260149054906101000a900460ff166002811115610def577f4e487b7100000000000000000000000000000000000000000000000000000000600052602160045260246000fd5b14610e2f576040517f08c379a0000000000000000000000000000000000000000000000000000000008152600401610e26906118ad565b60405180910390fd5b6001600260146101000a81548160ff02191690836002811115610e7b577f4e487b7100000000000000000000000000000000000000000000000000000000600052602160045260246000fd5b02179055503460036000600160009054906101000a900473ffffffffffffffffffffffffffffffffffffffff1673ffffffffffffffffffffffffffffffffffffffff1673ffffffffffffffffffffffffffffffffffffffff1681526020019081526020016000206000828254610ef1919061194f565b92505081905550565b610f038261048c565b610f1481610f0f610fa5565b610fad565b610f1e838361112a565b505050565b60036020528060005260406000206000915090505481565b60007f01ffc9a7000000000000000000000000000000000000000000000000000000007bffffffffffffffffffffffffffffffffffffffffffffffffffffffff1916827bffffffffffffffffffffffffffffffffffffffffffffffffffffffff1916149050919050565b600033905090565b610fb78282610c11565b61104657610fdc8173ffffffffffffffffffffffffffffffffffffffff16601461120b565b610fea8360001c602061120b565b604051602001610ffb9291906117a5565b6040516020818303038152906040526040517f08c379a000000000000000000000000000000000000000000000000000000000815260040161103d919061184b565b60405180910390fd5b5050565b6110548282610c11565b61112657600160008084815260200190815260200160002060000160008373ffffffffffffffffffffffffffffffffffffffff1673ffffffffffffffffffffffffffffffffffffffff16815260200190815260200160002060006101000a81548160ff0219169083151502179055506110cb610fa5565b73ffffffffffffffffffffffffffffffffffffffff168173ffffffffffffffffffffffffffffffffffffffff16837f2f8788117e7eff1d82e926ec794901d17c78024a50270940304540a733656f0d60405160405180910390a45b5050565b6111348282610c11565b1561120757600080600084815260200190815260200160002060000160008373ffffffffffffffffffffffffffffffffffffffff1673ffffffffffffffffffffffffffffffffffffffff16815260200190815260200160002060006101000a81548160ff0219169083151502179055506111ac610fa5565b73ffffffffffffffffffffffffffffffffffffffff168173ffffffffffffffffffffffffffffffffffffffff16837ff6391f5c32d9c69d2a47ea670b442974b53935d1edc7fd64eb21e047a839171b60405160405180910390a45b5050565b60606000600283600261121e91906119a5565b611228919061194f565b67ffffffffffffffff811115611267577f4e487b7100000000000000000000000000000000000000000000000000000000600052604160045260246000fd5b6040519080825280601f01601f1916602001820160405280156112995781602001600182028036833780820191505090505b5090507f3000000000000000000000000000000000000000000000000000000000000000816000815181106112f7577f4e487b7100000000000000000000000000000000000000000000000000000000600052603260045260246000fd5b60200101907effffffffffffffffffffffffffffffffffffffffffffffffffffffffffffff1916908160001a9053507f780000000000000000000000000000000000000000000000000000000000000081600181518110611381577f4e487b7100000000000000000000000000000000000000000000000000000000600052603260045260246000fd5b60200101907effffffffffffffffffffffffffffffffffffffffffffffffffffffffffffff1916908160001a905350600060018460026113c191906119a5565b6113cb919061194f565b90505b60018111156114b7577f3031323334353637383961626364656600000000000000000000000000000000600f861660108110611433577f4e487b7100000000000000000000000000000000000000000000000000000000600052603260045260246000fd5b1a60f81b828281518110611470577f4e487b7100000000000000000000000000000000000000000000000000000000600052603260045260246000fd5b60200101907effffffffffffffffffffffffffffffffffffffffffffffffffffffffffffff1916908160001a905350600485901c9450806114b090611ae7565b90506113ce565b50600084146114fb576040517f08c379a00000000000000000000000000000000000000000000000000000000081526004016114f29061186d565b60405180910390fd5b8091505092915050565b60008135905061151481611cff565b92915050565b60008135905061152981611d16565b92915050565b60008135905061153e81611d2d565b92915050565b60006020828403121561155657600080fd5b600061156484828501611505565b91505092915050565b60006020828403121561157f57600080fd5b600061158d8482850161151a565b91505092915050565b600080604083850312156115a957600080fd5b60006115b78582860161151a565b92505060206115c885828601611505565b9150509250929050565b6000602082840312156115e457600080fd5b60006115f28482850161152f565b91505092915050565b61160481611a11565b82525050565b61161381611a23565b82525050565b61162281611a2f565b82525050565b61163181611aa2565b82525050565b600061164282611928565b61164c8185611933565b935061165c818560208601611ab4565b61166581611b6f565b840191505092915050565b600061167b82611928565b6116858185611944565b9350611695818560208601611ab4565b80840191505092915050565b60006116ae602083611933565b91506116b982611b80565b602082019050919050565b60006116d1601f83611933565b91506116dc82611ba9565b602082019050919050565b60006116f4600c83611933565b91506116ff82611bd2565b602082019050919050565b6000611717602883611933565b915061172282611bfb565b604082019050919050565b600061173a601783611944565b915061174582611c4a565b601782019050919050565b600061175d601183611944565b915061176882611c73565b601182019050919050565b6000611780602f83611933565b915061178b82611c9c565b604082019050919050565b61179f81611a98565b82525050565b60006117b08261172d565b91506117bc8285611670565b91506117c782611750565b91506117d38284611670565b91508190509392505050565b60006020820190506117f460008301846115fb565b92915050565b600060208201905061180f600083018461160a565b92915050565b600060208201905061182a6000830184611619565b92915050565b60006020820190506118456000830184611628565b92915050565b600060208201905081810360008301526118658184611637565b905092915050565b60006020820190508181036000830152611886816116a1565b9050919050565b600060208201905081810360008301526118a6816116c4565b9050919050565b600060208201905081810360008301526118c6816116e7565b9050919050565b600060208201905081810360008301526118e68161170a565b9050919050565b6000602082019050818103600083015261190681611773565b9050919050565b60006020820190506119226000830184611796565b92915050565b600081519050919050565b600082825260208201905092915050565b600081905092915050565b600061195a82611a98565b915061196583611a98565b9250827fffffffffffffffffffffffffffffffffffffffffffffffffffffffffffffffff0382111561199a57611999611b11565b5b828201905092915050565b60006119b082611a98565b91506119bb83611a98565b9250817fffffffffffffffffffffffffffffffffffffffffffffffffffffffffffffffff04831182151516156119f4576119f3611b11565b5b828202905092915050565b6000611a0a82611a78565b9050919050565b6000611a1c82611a78565b9050919050565b60008115159050919050565b6000819050919050565b60007fffffffff0000000000000000000000000000000000000000000000000000000082169050919050565b6000819050611a7382611ceb565b919050565b600073ffffffffffffffffffffffffffffffffffffffff82169050919050565b6000819050919050565b6000611aad82611a65565b9050919050565b60005b83811015611ad2578082015181840152602081019050611ab7565b83811115611ae1576000848401525b50505050565b6000611af282611a98565b91506000821415611b0657611b05611b11565b5b600182039050919050565b7f4e487b7100000000000000000000000000000000000000000000000000000000600052601160045260246000fd5b7f4e487b7100000000000000000000000000000000000000000000000000000000600052602160045260246000fd5b6000601f19601f8301169050919050565b7f537472696e67733a20686578206c656e67746820696e73756666696369656e74600082015250565b7f4f6e6c792062757965722063616e2063616c6c2074686973206d6574686f6400600082015250565b7f416c726561647920506169640000000000000000000000000000000000000000600082015250565b7f4f6e6c79206167656e74206f72206f776e65722063616e2063616c6c2074686960008201527f73206d6574686f64000000000000000000000000000000000000000000000000602082015250565b7f416363657373436f6e74726f6c3a206163636f756e7420000000000000000000600082015250565b7f206973206d697373696e6720726f6c6520000000000000000000000000000000600082015250565b7f416363657373436f6e74726f6c3a2063616e206f6e6c792072656e6f756e636560008201527f20726f6c657320666f722073656c660000000000000000000000000000000000602082015250565b60038110611cfc57611cfb611b40565b5b50565b611d08816119ff565b8114611d1357600080fd5b50565b611d1f81611a2f565b8114611d2a57600080fd5b50565b611d3681611a39565b8114611d4157600080fd5b5056fea26469706673582212201b49d6149a52acf834f879e7938aaaf9d60938faf516a96ef5b18d59dde4e2d464736f6c63430008040033",
  "immutableReferences": {},
  "source": "//SPDX-License-Identifier: MIT\r\n\r\npragma solidity ^0.8.4;\r\n\r\nimport \"@openzeppelin/contracts/access/AccessControl.sol\";\r\n//https://github.com/OpenZeppelin/openzeppelin-contracts/blob/master/contracts/access/AccessControl.sol\r\n\r\ncontract Escrow is AccessControl{\r\n    //escrow agent\r\n    address payable public buyer;\r\n    address payable public seller;\r\n\r\n    enum State{ AWAITING_PAYMENT, AWAITING_DELIVERY, COMPLETE }\r\n    State public state;\r\n    \r\n    mapping(address => uint) public deposits;\r\n    \r\n    //declaring variables --over here\r\n    bytes32 public constant AGENT = keccak256(\"AGENT\");\r\n    bytes32 public constant BUYER = keccak256(\"BUYER\");\r\n    bytes32 public constant SELLER = keccak256(\"SELLER\"); \r\n    //state \r\n    modifier inState(State expected_state){\r\n        require(state == expected_state);\r\n        _;\r\n    }\r\n    //check RBAC for agent\r\n    modifier onlyAgent() {\r\n        require(hasRole(AGENT, msg.sender), \"Only agent or owner can call this method\");\r\n        _;\r\n    }\r\n\r\n    //buyer\r\n    modifier onlyBuyer(){\r\n        require(msg.sender == buyer, \"Only buyer can call this method\");\r\n        _;\r\n    }\r\n    //seller\r\n    modifier onlySeller(){\r\n        require(msg.sender == seller,\"Only seller can call this method\");\r\n        _;\r\n    }\r\n    //constructor\r\n    constructor() { \r\n        _setupRole(AGENT, msg.sender);\r\n        _setupRole(BUYER, buyer);\r\n        _setupRole(SELLER, seller);\r\n        state = State.AWAITING_PAYMENT;\r\n    }\r\n    //buyer deposits funds to contract\r\n    function deposit() public onlyBuyer payable{\r\n        require(state == State.AWAITING_PAYMENT, \"Already Paid\");\r\n        state = State.AWAITING_DELIVERY;\r\n        deposits[buyer] += msg.value;\r\n    }\r\n    //function to confirm the payment \r\n    function confirmPayment() inState(State.AWAITING_PAYMENT) public onlyBuyer payable{\r\n        state = State.COMPLETE;\r\n    }\r\n    //agent releases payment to seller -- true\r\n    function confirmDelivery() onlyAgent inState(State.AWAITING_DELIVERY) public{\r\n        uint256 payment = deposits[buyer];\r\n        deposits[buyer] = 0;\r\n        seller.transfer(payment);\r\n        state = State.COMPLETE;\r\n    }\r\n    //agent releases payment to buyer -- false\r\n    //return payment to buyer\r\n    function returnPayment() onlyAgent inState(State.AWAITING_DELIVERY) public{\r\n        uint256 payment = deposits[buyer];\r\n        deposits[buyer] = 0;\r\n        buyer.transfer(payment);\r\n        state = State.COMPLETE;\r\n    }\r\n    \r\n}\r\n",
  "sourcePath": "C:/Users/Kairavi/escrow_lab/blockchain/contracts/Escrow.sol",
  "compiler": {
    "name": "solc",
    "version": "0.8.4+commit.c7e474f2.Emscripten.clang"
  },
  "schemaVersion": "3.4.1",
  "updatedAt": "2021-06-14T16:26:27.287Z",
  "networkType": "ethereum",
  "devdoc": {
    "kind": "dev",
    "methods": {
      "getRoleAdmin(bytes32)": {
        "details": "Returns the admin role that controls `role`. See {grantRole} and {revokeRole}. To change a role's admin, use {_setRoleAdmin}."
      },
      "grantRole(bytes32,address)": {
        "details": "Grants `role` to `account`. If `account` had not been already granted `role`, emits a {RoleGranted} event. Requirements: - the caller must have ``role``'s admin role."
      },
      "hasRole(bytes32,address)": {
        "details": "Returns `true` if `account` has been granted `role`."
      },
      "renounceRole(bytes32,address)": {
        "details": "Revokes `role` from the calling account. Roles are often managed via {grantRole} and {revokeRole}: this function's purpose is to provide a mechanism for accounts to lose their privileges if they are compromised (such as when a trusted device is misplaced). If the calling account had been granted `role`, emits a {RoleRevoked} event. Requirements: - the caller must be `account`."
      },
      "revokeRole(bytes32,address)": {
        "details": "Revokes `role` from `account`. If `account` had been granted `role`, emits a {RoleRevoked} event. Requirements: - the caller must have ``role``'s admin role."
      },
      "supportsInterface(bytes4)": {
        "details": "See {IERC165-supportsInterface}."
      }
    },
    "version": 1
  },
  "userdoc": {
    "kind": "user",
    "methods": {},
    "version": 1
  }
}